:400000000080002011000000E9190000E919000008B5044B1A6803F53F5302331A6001F003FD00BFFA46004010B5054C237833B9044B13B10448AFF300800123237010BD72
:400040001083FF1F00000000D0340000084B10B51BB108490848AFF300800848036803B910BD074B002BFBD0BDE81040184700BF000000001483FF1FD0340000C880FF1F66
:400080000000000008B5002001F07EFF08BD00BF684620F007018D4619B572B6EFF311841E4B1B68DBB20F2B10D9103B23F0030202F1604202F564421168DB0003F01803D8
:4000C000E0229A400A4022FA03F306E00F2B03D1134B1B681B0E00E0002383F31188114A136801331360012B01D102F019FC62B6FFF7C8FF72B684F3118802F03FF9094AAC
:400100001368013B13601BB902F013FC02F0D7FB62B6BDE819408546704700BF04ED00E020ED00E08C84FF1F08B5022001F03AFD042001F037FD08BD08B562B645F6BF5283
:40014000054B1A60054A136843F002031360002002F002FAFBE700BF14E000E010E000E030B5A1B001F0EAFC00F066FF012000F003FF6C46184D0FCD0FC495E8030084E8C6
:400180000300684601F0D4F96C46144D0FCD0FC495E8030044F8040B24F8021B090C2170684601F0C5F902F03BFA0D4A136843F00503136000F056FD01221146002001F092
:4001C00065FD032001F0EEFC012001F0EBFC02F009FA21B030BD00BFD4340000EC34000010E000E000BFFDE700B583B000230193032001F0EFFF01A9032001F04BFF019857
:4002000001F01AFF019A0121014801F0A5FAEFE70435000010B5084C22680221074801F083FA23680133236013F5807F01D90022226002F0D7F910BD2C83FF1F1035000024
:4002400008B5012001F052FA02F0CCF908BD00BF70B5A2B0264BDC6C2368002B46D044222349684602F0FCFC23686846984730BB44252A4669460DEB050002F0F1FC1C4CF3
:40028000E66C2A460DEB0501204602F0E9FC0023A364022384F844307569B36833B33DB924E0996855F8240001F014FF013400E000240F4BDB6C1A699442F2D316E00C4B6E
:4002C000032283F84420DB6CDD69DB6873B13DB90CE0D96855F8240001F0FCFE013400E00024034BDB6C9A699442F2D322B070BDCC80FF1F00B593B04422104901A802F060
:40030000AFFC9DF80600012802D100F0FFFC12E0022802D100F0FAFC0DE0032802D100F0F5FC08E0052802D100F0F0FC03E0042801D100F0EBFC13B05DF804FBCC80FF1FF2
:40034000F0B593B00CAC06AD214E0FCE0FC596E8030085E8030006AB93E8070084E8070009AB93E8070012AB03E907006D460FCC0FC594E8030085E80300164E376A3446BD
:400380006D460FCD0FC495E8030084E803000023F361022333767D69BB6873B13DB90CE0996855F8240001F095FE013400E00024084B1B6A1A699442F2D3064B1B7E022B5C
:4003C00003D10448036A5B68984713B0F0BD00BF1C81FF1F4081FF1F30B4002309E003EB4305AC00045D944201D118B205E001339BB28B42F3D34FF0FF3030BC704700BF97
:400400002DE9F84F044691469A469DF828800B9B93F800B05A46FFF7DFFFB0F1FF3F60D000EB400083001C4465680DB1268900E00026002D59D0002E5BD000244CE0274603
:4004400004EB44029300EB5C434543D104EB440293002B445B6813B1984701283AD17A00D1198B0019462B449C680D446E78B9F1000F0FD111E005EB4502930009EB0302BB
:4004800019F803309B4502D1936803B198470135ADB200E000255545EDD304B1A047B9F1000F0FD111E004EB4402930009EB030219F803309E4202D1536803B19847013462
:4004C000A4B200E000245445EDD30B9B1E700020BDE8F88F0134A4B2A642B0D80020BDE8F88F6FF01300BDE8F88F6FF01600BDE8F88F6FF01600BDE8F88F00BFF0B58DB001
:40050000204F06AD3C460FCC0FC594E8030085E803004FF0000EADF81CE04FF6FF73ADF81E30ADF828E0ADF82A306D4606AE0FCE0FC596E8030085E80300D7F820C03E46F9
:400540006D460FCD0FC695E8030084E80300C7F81CE002233B76DCF81450DCF8083073B13DB90CE0996855F8240001F0B3FD013400E00024034B1B6A1A699442F2D30DB053
:40058000F0BD00BF1C81FF1FF0B58DB006AC274D0FCD0FC495E8030084E803009DF818305BB94FF6FF73ADF81C300022ADF81E20ADF82820ADF82A300EE09DF82430012BE1
:4005C0000AD10023ADF81C304FF6FF72ADF81E20ADF82820ADF82A306C4606AD0FCD0FC495E8030084E80300104E376A34466D460FCD0FC495E8030084E803000023F36143
:40060000022333767D69BB6873B13DB90CE0996855F8240001F05EFD013400E00024034B1B6A1A699442F2D30DB0F0BD1C81FF1FF0B58DB0184F06AD3C460FCC0FC594E827
:40064000030085E803006D4606AE0FCE0FC596E8030085E80300D7F820E03E466D460FCD0FC60023FB6102233B76DEF81450DEF8083073B13DB90CE0996855F8240001F041
:4006800029FD013400E00024034B1B6A1A699442F2D30DB0F0BD00BF1C81FF1FF0B58DB006AC2C4D0FCD0FC495E8030084E803009DF82E300133DBB28DF82E30264AA2FBB7
:4006C00003125209C2EB021291005B1A13F0FF0F16D19DF822300133DBB28DF822301F4AA2FB0312120902EB4202D1005B1A13F0FF0F02D100238DF8223000238DF82E30BB
:400700006C4606AD0FCD0FC495E8030084E80300104E376A34466D460FCD0FC495E8030084E803000023F361022333767D69BB6873B13DB90CE0996855F8240001F0CAFC6F
:40074000013400E00024034B1B6A1A699442F2D30DB0F0BD1C81FF1F89888888ABAAAAAA08B5FFF79BFF08BDF0B58DB006AC234D0FCD0FC495E8030084E803009DF82230C5
:400780000133DBB28DF822301D4AA2FB0312120902EB4202D1005B1A13F0FF0F02D100238DF82230FFF744FF6C4606AD0FCD0FC495E8030084E80300104E376A34466D46B0
:4007C0000FCD0FC495E8030084E803000023F361022333767D69BB6873B13DB90CE0996855F8240001F076FC013400E00024034B1B6A1A699442F2D30DB0F0BD1C81FF1FE3
:40080000ABAAAAAAF0B58DB006AC244D0FCD0FC495E8030084E803009DF82E300133DBB28DF82E301E4AA2FB03125209C2EB021291005B1A13F0FF0F04D100238DF82E30AD
:40084000FFF792FFFFF7F4FE6C4606AD0FCD0FC495E8030084E80300104E376A34466D460FCD0FC495E8030084E803000023F361022333767D69BB6873B13DB90CE09968E7
:4008800055F8240001F026FC013400E00024034B1B6A1A699442F2D30DB0F0BD1C81FF1F8988888800B593B04422084901A802F0D7F99DF8143013B9FFF756FF03E0012B2B
:4008C00001D1FFF79FFF13B05DF804FBCC80FF1F2DE9F043E9B007460E465D4C44252A46214657A802F0BCF94FF000098DF85E918DF86C612A4657A902A802F0B1F9D4F86F
:400900004C802A4602A9204602F0AAF9C4F84890022384F84430D8F81450D8F8083073B13DB90CE0996855F8240001F0D3FB013400E00024464BDB6C1A699442F2D3002E5C
:4009400041D19DF8702168AB03F8882D4148019300970323024619462430FFF751FD3C4C44252A46214624A802F07AF92A4624A957A802F075F99DF818318DF870312A465A
:4009800057A913A802F06CF9E66C2A4613A9204602F066F90023A364022384F844307569B368002B50D03DB94EE0996855F8240001F090FB013400E00024254BDB6C1A69E8
:4009C0009442F2D340E0012E3ED19DF8883124AE8DF890301F48019600970323024619462430FFF70DFD1A4C44252A46214646A802F036F92A4646A957A802F031F9337809
:400A00008DF888312A4657A935A802F029F9E66C2A4635A9204602F023F90023A364022384F844307569B36873B13DB90CE0996855F8240001F04EFB013400E00024044B91
:400A4000DB6C1A699442F2D369B0BDE8F08300BFCC80FF1F2435000070B5A2B0194C44252A4621460DEB050002F0FAF803238DF858302A460DEB0501684602F0F1F8E66CE5
:400A80002A466946204602F0EBF80023A364022384F844307569B36873B13DB90CE0996855F8240001F016FB013400E00024054BDB6C1A699442F2D300210120FFF708FFFD
:400AC00022B070BDCC80FF1F08B500210420FFF7FFFE08BD70B5A2B0194C44252A4621460DEB050002F0BCF804238DF858302A460DEB0501684602F0B3F8E66C2A466946B6
:400B0000204602F0ADF80023A364022384F844307569B36873B13DB90CE0996855F8240001F0D8FA013400E00024054BDB6C1A699442F2D300210320FFF7CAFE22B070BD56
:400B4000CC80FF1F08B500210220FFF7C1FE08BD70B5A2B01D4C44252A4621460DEB050002F07EF804238DF8583003238DF870302A460DEB0501684602F072F8E66C2A4653
:400B80006946204602F06CF80023A364022384F844307569B36873B13DB90CE0996855F8240001F097FA013400E00024074BDB6C1A699442F2D300210120FFF789FE0121C7
:400BC0000846FFF785FE22B070BD00BFCC80FF1F08B501210420FFF77BFE08BD70B5A2B0194C44252A4621460DEB050002F038F804238DF870302A460DEB0501684602F03A
:400C00002FF8E66C2A466946204602F029F80023A364022384F844307569B36873B13DB90CE0996855F8240001F054FA013400E00024054BDB6C1A699442F2D30121032081
:400C4000FFF746FE22B070BDCC80FF1F08B501210220FFF73DFE08BD08B501210846FFF737FE08BDF0B58DB0274F06AD3C460FCC0FC594E8030085E8030003238DF81A309D
:400C80008DF8263014228DF820203C238DF821308DF82C208DF82D304FF0000EADF81CE0ADF828E04FF6FF73ADF81E30ADF82A306D4606AE0FCE0FC596E8030085E8030029
:400CC000D7F820C03E466D460FCD0FC695E8030084E80300C7F81CE002233B76DCF81450DCF8083073B13DB90CE0996855F8240001F0F0F9013400E00024034B1B6A1A69B8
:400D00009442F2D30DB0F0BD1C81FF1F10B582B0064C074B01930090012304F14802032104F15400FFF76CFB02B010BD243500003083FF1F38B5134B988908B319461C8933
:400D4000631C9BB2104AA2FB03525209642505FB12330B810138888101EB44018B7B13B1012B04D006E0002001F000FD02E0012001F0FCFC034B03EB4404E07B01F0AAFC13
:400D800038BD00BF3483FF1F1F85EB5130B5ABB01B4B9B89632B17D92AAD032305F8A83D184B1868CDF80100174C0FCCCDF81100CDF81510CDF81920CDF81D30284600F08E
:400DC000C1FB6FF0070019E00D4D6C89621C92B205EB4404A073E1730C49A1FB02014909642000FB11226A8101339BB2AB81012B03D1FFF79FFF002000E000202BB030BD1C
:400E00003483FF1FB43B0000B83B00001F85EB512DE9F04180460E4617461D462A210020FFF7B4FF00210120FFF7B0FF194C94F8D6104144C9B20120FFF7A8FF0021012028
:400E4000FFF7A4FF94F8D6103944C9B20120FFF79DFF2B210020FFF799FF00210120FFF795FF94F8D7103144C9B20120FFF78EFF00210120FFF78AFF94F8D7102944C9B2D3
:400E80000120FFF783FF2C210020FFF77FFFBDE8F08100BF3483FF1F10B5044636210020FFF774FF04F003002A4B83F8D80003284ED8DFE800F00215283BC2210120FFF7E4
:400EC00065FF244BA022A3F8DA208022DA8093F8DC2083F8D62093F8DD2083F8D72010BDA2210120FFF752FF1A4BA022DA808022A3F8DA2093F8DC2083F8D72093F8DD20A9
:400F000083F8D62010BD08210120FFF73FFF114BA022A3F8DA208022DA8093F8DC2083F8D62093F8DD2083F8D72010BD62210120FFF72CFF074BA022DA808022A3F8DA201D
:400F400093F8DC2083F8D72093F8DD2083F8D62010BD00BF3483FF1F024BA3F8DE00A3F8E01070473483FF1F024BA3F8E200A3F8E41070473483FF1F08B90120FFE7014B48
:400F8000187170473483FF1F2DE9F0411F46BDF818501F4BB3F90630834236DD90461C4AB2F8DA20914230DA00EB0804013C9C4202DB1B1A0FFA83F87B18013B9A4201DC42
:400FC000571A3FB2C0B2C9B2CB19013B00EB0802013ADBB2D2B2FFF71BFF2E0AEDB2012001F0C4FB0FE031460220FFF7CFFE29460220FFF7CBFE013C24B200E04446002C45
:40100000F1DC013F3FB2002FF8DCBDE8F08100BF3483FF1F00B583B0064AB2F9DA30B2F90620009000210846FFF7AEFF03B05DF804FB00BF3483FF1FF8B5364B8022DA80E0
:40104000A022A3F8DA20002483F8D840A3F8DE40A3F8E04001251D714FF6FF72A3F8E220A3F8E4405D711C6083F8DD4083F8DC4083F8D64083F8D7401C815C819C8101F004
:4010800067FB284601F07EFB642001F0E7FA204601F078FB642001F0E1FA284601F072FB142001F0DBFA29462046FFF76FFE322001F0D4FA11212046FFF768FE782001F0FA
:4010C000CDFA0F22144D14E02C4614F8021B0020FFF75CFE6A78254606E06E1C29780120FFF754FE22463546531EDCB2002AF4D13A46531EDFB2002AE6D10220FFF7CCFEBB
:401100000020FFF787FF01F0A9FB642001F060FBF8BD00BF3483FF1F5D360000002821DB114BB3F9063098421CDA00291ADB0E4BB3F8DA30994215DA10B51446C0B2C9B29E
:401140004B1C421CDBB2D2B2FFF762FE012001F00DFB210A0220FFF719FEE1B20220FFF715FE10BD704700BF3483FF1FF8B51E46164BB3F90630834226DD1546134BB3F879
:40118000DA30994220DA0A44013A934201DC5D1A2DB2C0B2C9B24B19013BDBB20246FFF737FE370AF6B2012001F0E0FA08E039460220FFF7EBFD31460220FFF7E7FD254618
:4011C0006A1E14B2002DF2D1F8BD00BF3483FF1F2DE9F04F8BB00290039115460493BDF850709DF854A07F4B1A68002A40F09080B3F906300146834240F3F180794BB3F80B
:40120000DA300398984280F2EA800AEB4A0253000B44012B00F1E38000EBCA03012B00F1DE804FF00008894683460595049E4EE0059B03EB830343446B4A134493F858509A
:4012400000243EE015F0010F1BD0BAF1010F09D104EB0B0108EB0900324609B200B2FFF75DFF2BE01FFA8AF00FFA8AF204FB00B108FB00900096134609B200B2FFF784FE2F
:401280001CE0BE421AD0BAF1010F09D104EB0B0108EB09003A4609B200B2FFF73FFF0DE01FFA8AF00FFA8AF204FB00B108FB00900097134609B200B2FFF766FE013464B251
:4012C0006D08072CBEDD08F101084FFA88F8B8F1040FADDD049BBB4200F08180BAF1010F08D1029805303B460822039900B2FFF73DFF74E01FFA8AF303EB8300029A104434
:401300000097DB005246039900B2FFF73DFE66E0137AEB1ADBB2506800EBC301D2F800B030F8337091F80280CB78079391F90530089391F906200992BAF1010F04D91BB221
:40134000059313B2069302E000230693059300231C46994640E05E1CF6B213F0070F03D17B1C1BF807409FB214F0800F27D0BAF1010F0DD1099B039A99184944089B029A8B
:4013800098182844049A09B200B2FFF7C7FE16E0059B58191FFA8AF3069A02EB09010FFA8AFE039A01FB0321029A00FB0320049B00937246734609B200B2FFF7E5FD6400C3
:4013C000E4B20135EDB2334600E000254545C2D309F101095FFA89F9079A9145F5D30BB0BDE8F08F3483FF1F5C36000070B582B04E4B1B68002B43D10A280BD14B4B002209
:40140000A3F8DE201979B3F8E02002EBC102A3F8E02088E00D2800F08680444B5B79ABB1424A117901EB41046300B2F8DE402344B2F90620934209DD3C4B0022A3F8DE2092
:40144000B3F8E02002EBC101A3F8E010374CB4F8E230B4F9E010B4F9DE5022790192B4F8E420009202462846FFF7B2FE237903EB43035A00B4F8DE301344A4F8DE3052E0EB
:401480000A280CD1294A0021A2F8DE10997A1079B2F8E03000FB0133A2F8E03043E00D2841D01A7A90423ED3597A88423BD8821A5C6804EBC204A278E1785AB351B394F91C
:4014C00005501A494979A9B118490E792A44B1F8DE5002FB0652B1F906108A420ADD134A0021A2F8DE109B7AB2F8E01006FB0316A2F8E0600D4AB2F8E230B2F9E010B2F921
:40150000DE5016790196B2F8E420009202462846FFF75EFE2179054B1879B3F8DE2000FB0122A3F8DE2002B070BD00BF3483FF1F10B5044602E00134FFF758FF207800288E
:40154000F9D110BD10B50446013000F011FB064800F00EFB04F1110000F00AFB034800F007FB002010BD00BFDC3B0000C83B00002DE9F043A5B00446867A857DB0F804902D
:40158000B0F806808778417A007AFFF7E5FC49464046FFF7E9FC3846FFF7EEFCB4F81090B4F81280A77B617D207DFFF7D5FC49464046FFF7D9FC3846FFF7DEFC154B1B7895
:4015C00023B90122134B1A703A2703E00022114B1A7020271049A1FB0632D20802EB82004300F31AA1FB0501C90801EB810460002D1AADB20295019100979BB2074904A8B8
:4016000001F042FB04A8FFF793FF002025B0BDE8F08300BF1A84FF1FCDCCCCCCE03B000010B504460023837000F0B4FA207001F031F960702C4B1B88FA2B05D10423A370E7
:401640000022294B1A8002E03233274A1380264B5B884EF66022934205D10523A3700022214B5A8002E032331F4A53802278012A02D101211C4B99806378012B05D11A498A
:401680000120C8800889643008814AB9164A9288012A05D10123A3700022134B9A8020E07BB9114AD288012A0BD10F4A1289B2F57A7F06D20223A3700B4B0022DA801A81C3
:4016C0000FE073B9084BDB88012B0AD1064B1B89B3F57A7F05D90323A370034B0022DA801A81002010BD00BF1C84FF1F0D4B9B6C034413F1011F01D80A4A9364094BDB6E0B
:40170000034413F1011F01D8064AD366054BD3F89030184410F1011F02D8024BC3F89000704700BFCC80FF1FF8B506460F46154600240DE006EBC4039A88B5FBF2F302FB0C
:4017400013531BB956F83430002098470134A4B2BC42EFD30020F8BDF8B505460E461746002409E005EBC4035868384202D055F8343098470134A4B2B442F3D30020F8BD39
:40178000FEE700BFF0B40022174611E050F82760F3B226F0FF0608E001EB420511F812406D78A5550132013BDBB2002BF4D10137142FEBD9F0BC7047064B1B78DBB203F09B
:4017C0000701054A11701B09013213704422034B1A707047CF0100496E5800407658004008B50A46002101F046FA08BD38B50024284B1C80582202331A70192502331D8088
:401800001823254A137041F2BF2102321180023213700222214B1A7008224FF040231A70032103F5007319701D4B1B78DBB21D490B701D4B1A8041F25122023B1A800CE090
:401840001A4B1B7803F0010343EA440404F003044FF4F07001F0ECF8013D0DB1032CEFD115B90320FFF78CFF114B4FF480721A8007221A7000220F490A704820023108704F
:401880001A700222033B1A700B4A137843F00703137038BD80400040864000400043004008010049A146004022420040254200400440004006400040A243004008B501F0F3
:4018C000CFF908BD38B572B6364A137843F00403137000240CE0344D630019194A0011462A44084691882858FFF77AFF0134E4B20B2CF0D900240CE02B48A20011194B008E
:401900000344B3F85020D96C986CFFF7D7FF0134E4B2032CF0D925494FF09040FFF732FF234A137843F0020313701032137843F0020313701F4C237843F040032370A2F5E8
:401940008632513A137843F01003137008221A491A48FFF7B3FF0A2219491A48FFF7AEFF082219491948FFF7A9FF082218491948FFF7A4FF184A137843F008031370174D84
:4019800061232B70FFF732FF81232B700122144B1A70FFF711FF0E2221461248FFF78EFF38BD00BFE8460040683C00005400004803500140A04300402805004802510040FB
:4019C00030050048C05100403C050048125100404405004832510040224300400048004004000840B043004008B501F00DF903680C2B00D1FEE7FEE708B5094B1A68104415
:401A0000084BC31A802B02DC054B186005E001F0FBF80C2303604FF0FF32104608BD00BF6481FF1FD8A6FF1F08B5104E104D16E029686B68AC68002204E051F8040B43F862
:401A4000040B0432A242F8D1E868002203E0002143F8041B04328242F9D11035013E002EE6D101F0D7F8FEF767FBFEE701000000703F000008B5104A104B1A60104A13680A
:401A800043F40073136000230AE0032B03D80D4A52F8231000E00C490C4A42F8231001332F2BF2D90A4B1A780A4B1A70074A0A4B1A60FFF707FF08BD0004FA050CED00E04B
:401AC00014ED00E000000000E91900000080FF1FBC760040C080FF1F08ED00E07222084B1A702022023B1A700622A3F5AF731A70472210331A70002203F24F131A707047EA
:401B00008A65004010B500F09BFF04460A4A137843F020031370023A137843F0100313700132137843F01003137000F089FD204600F08AFF10BD00BF9A65004008B5054BE1
:401B40001B7823B9FFF7CAFF0122024B1A70FFF7D9FF08BD2684FF1F034B1B7813F0040FFAD1024B18707047696500404965004038B5074B1B782BB938BDFFF7EDFF0134D6
:401B8000A4B201E005460024285D0028F5D138BD2684FF1F024B1878C0F3C000704700BF0151004038B5EFF3108572B604284ED82D4B53F82030002B4BD02B4A013B42F8D5
:401BC00020302A4B53F82030032B07D10222274B43F820200022264B43F8202000F03EFC244B1B68002B36D1234B1C6800F014FCB0F1FF3F31D0214B53F82020204B1B685B
:401C00009A422CD9B4F1FF3F03D00221174A42F824101C4A52F820201343194A13600022124B43F8202000F0B3FB174B53F820304BB10024144B43F8204040F0004000F0F0
:401C400081FE20460CE000F07DFE002008E0032006E0042004E0002002E0002000E0002085F3108838BD00BFB081FF1F5C82FF1F5084FF1F8C84FF1F4482FF1F5C3E000040
:401C80006C84FF1F403E00002884FF1FF8B5EFF3108472B628BB00EB4005AB00184DEB5803EB4306B500174E75598D421BD34AB103EB43039E00134B1E44B3689A4214D3D6
:401CC000954214D3A9B103010F4DEB589BB90301EE180127EF507260013900F087F800200AE0032008E0082006E0082004E0082002E0082000E0072084F31088F8BD00BFFE
:401D0000F83D00000C3E0000BC84FF1F18B108B5C368984708BD704708B508B1406800E00020042816D80C4B53F8203093B10A4A013B42F82030094B53F82030032B07D13D
:401D40000222064B43F820200022054B43F8202000F084FB08BD00BFB081FF1F5C82FF1F5084FF1F18B1034640689B6801E00023184604281DD80F4A52F82020CAB10E4A60
:401D800052F82010032914D010B50C4C54F820201A4344F820200A4A52F82020134207D0012905D10222044B43F8202000F056FB10BD7047183E00005C82FF1F5084FF1F16
:401DC0003C84FF1F80B108B50378012B06D013B1032B06D008BDFFF79FFF08BDFFF7C2FF08BDFFF793FF08BD704700BF30B400EB40029300214AD258214B03EBC2035C6859
:401E0000B4F1FF3F04D11E4B03EBC20250602DE01C4B03EB04139B6899420AD2184D05EBC2025060174A02EB04125B1A93601DE01C46144B03EB04139A68891ADB68B3F108
:401E4000FF3F05D00F4A02EB031292689142EFD2B3F1FF3F05D00B4A02EB031295686D1A9560084A02EB0414E0601C46054B03EB00108160C46030BC704700BFF83D0000FC
:401E80006C81FF1FBC84FF1F38B5394A02EBC0035C6852F83030013342F8303000EB40018A0034498A58934203D90022304B43F83020B4F1FF3F59D02F4B03EB04139B68E1
:401EC000002B4ED1214600E019462B4B03EB0113DB68B3F1FF3F05D0274A02EB03129268002AF1D0244A02EB01114FF0FF32CA601F4A02EBC0004360B3F1FF3F07D01E4A47
:401F000002EB03139A68013A9A6000E02C4604EB44029300194A13441B7A7BB904EB44029300164A13445A68154B53F8223003EB83039A0013481044FFF744FF0E4B03EB4F
:401F40000413DD68596821B101392046FFF74EFF03E024010022084B1A51B5F1FF3FD5D138BD054A02EB0414013BA36038BD00BF6C81FF1F0C3E0000BC84FF1FF83D0000F9
:401F8000083E0000E43D000038B5EFF3108572B6002838D1FFF778FF204B1B68002B34D11F4B1C6800F038FAB0F1FF3F2FD01D4B53F820201C4B1B689A422AD9B4F1FF3FE5
:401FC00003D00221194A42F82410194A52F820201343154A13600022144B43F8202000F0D7F9144B53F820304BB10024114B43F8204040F0004000F0A5FC20460AE000F0F7
:40200000A1FC002006E0032004E0002002E0002000E0002085F3108838BD00BF8C84FF1F4482FF1F5C3E00006C84FF1F5C82FF1F403E00002884FF1FEFF3108372B6114A1A
:402040001168114A126882B9B1F1FF3F0FD00F4A52F821206AB110B40D4C54F8212022EA000044F82100002007E0022002E0022000E0012083F31088704783F3108810BC39
:40208000704700BF4482FF1F8C84FF1F183E00005084FF1F04280FD80B4B53F820306BB10A4B53F82030032B0AD059B1084B53F820300B600020704703207047012070474C
:4020C000072070470E207047183E00005C82FF1F5084FF1F38B5EFF3108472B6042853D8324B53F82030002B50D0314B53F82030032B4DD02F4D55F820200A4345F820205F
:402100002D4A52F82020114244D0012B44D10222274B43F8202000F0A1F9284B1B68002B3CD1274B1D6800F077F9B0F1FF3F37D0244B53F82020244B1B689A4232D9B5F177
:40214000FF3F03D002211A4A42F825101F4A52F8202013431C4A13600022154B43F8202000F016F91A4B53F820304BB10025184B43F8205040F0004000F0E4FB284612E06C
:4021800000F0E0FB00200EE003200CE001200AE0072008E0002006E0002004E0002002E0002000E0002084F3108838BD183E00005C82FF1F5084FF1F3C84FF1F8C84FF1F9D
:4021C0004482FF1F5C3E00006C84FF1F403E00002884FF1F38B5EFF3108472B6364B1D68364B1B68002B5DD1B5F1FF3F5CD0344B53F82530002B59D0324B53F82530034238
:4022000056D1314B43F825000122304B43F825202F4B53F825002F490B6823EA00030B602D4B43F825202D4B53F82520224B1A6000F0F2F8B0F1FF3F06D0294B53F82020B8
:40224000244B1B689A420DD81B4B1868B0F1FF3F03D000221D4B43F8202040F0004000F071FB1AE00021194A42F82010184A52F820201343174A136000F08AF8164B53F826
:40228000203043B10022144B43F8202040F0004000F058FB01E000F055FB00200A4B43F8250006E0022004E0022002E0012000E0002084F3108838BD4482FF1F8C84FF1F0E
:4022C000183E00005084FF1F3C84FF1F5C82FF1F403E00006C84FF1F2884FF1F4882FF1F5C3E000008B500F053F8084B53F8203043B10022054B43F8202040F00040044B5E
:40230000186008BD024B186008BD00BF2884FF1F9084FF1F10B500F07FF8124B1B68B0F1FF3F1AD0104A52F82010104A1268914213D9B3F1FF3F03D002240D4941F8234012
:4023400000210B4B43F820100A4B53F820301A43064B1A60FFF7C6FF10BD43F00043064A136010BD4482FF1F5C3E00006C84FF1F5C82FF1F403E00009084FF1F034B1B68CC
:4023800013B10022014B1A60704700BF8084FF1FF0B4184B19880B0A174AD356B3F1FF3F01D1535601E008335BB2144D55F82320134850F82200134E56F8224045F82340A5
:4023C000114D2F6846F822702A60B4F1FF3F09D10E4A42F82340012202FA03F321EA0301044B19800A4B19680A4A42F820101860F0BC70476884FF1FD83C00000482FF1F9F
:402400009484FF1F8881FF1F6484FF1FC481FF1F4482FF1F4882FF1F0C4B1A88130A0C49CB56B3F1FF3F01D18B5601E008335BB2B3F1FF3F06D0074A52F82320064B53F88E
:40244000220070474FF0FF30704700BF6884FF1FD83C00000482FF1F9484FF1F30B4144B53F82020134C2368134951F823502560124C44F823004FF0FF3441F8234010492E
:4024800051F82210A1420AD10E4951F820400E480188214301800D4941F8223002E0064840F82130064941F8223030BC704700BF9C81FF1F6484FF1F8881FF1F9484FF1FAB
:4024C000C481FF1F5C3E00006884FF1F0482FF1F10B150F8210070474FF0FF30704700BF0122014B1A60FEE78884FF1F70B50546124B53F8306000241CE0104B03EBC5039B
:4025000021465868FFF7E4FF0D4A52F82030013B42F820300B4B53F82030032B07D10222084B43F820200022074B43F82020FFF795FF0134B442E0D370BD00BFD83D0000A3
:40254000B081FF1F5C82FF1F5084FF1F18B908B5FFF7CCFF08BD7047194B1A4ADA621A4A9A631A4ADA63EFF3108272B6184B1B6813BB10B5044600F053F8164B1C600122B3
:40258000134B1A602046FFF7E1FFFFF745FFB0F1FF3F0ED0104B53F82030104A11680B43136000220E4B43F82020FFF7F1FE00F0C9F962B6FFF794FF82F31088072070476D
:4025C0000080FF1F05290000C9280000910000008884FF1FCC84FF1F403E00006C84FF1F5C82FF1F08B5EFF3108272B6094B1968094B1B6833B94FF0FF30084B43F821005F
:40260000002000E0022010B9084600F0F4F982F3108808BD4482FF1F8C84FF1F7481FF1F10B5EFF3108472B600F03CF9034A136843F07F43136084F3108810BD20ED00E00C
:40264000054A137843F0020313701032137843F002031370704700BFA243004010B5044605E0084B186800F0E3F9A4F50044B4F5004FF6D8034B586800FB04F000F0D8F9AE
:4026800010BD00BF9882FF1F08B500F0D9F90A4A137843F0200313700332137843F010031370013A137843F01003137000F0CCF900F0E2F808BD00BF98640040014B1878EC
:4026C000704700BF6B640040014B1878704700BF6A640040034B1B7813F0040FFAD0024B187070476B6400404864004008B501E00A4B1B780A4B1B7813F0200FF8D100F054
:402700009FF9084B1A7842F001021A701A7802F0FE021A7000F098F908BD00BF586400406A6400409864004008B50F22064B1A70FFF7DCFFFFF7C2FFFFF7C6FF0023034A88
:402740001370013A137008BD886400408B64004008B5054B1B7823B9FFF7E6FF0122024B1A70FFF791FF08BD7484FF1F044A137803F0F703C00000F0080018431070704736
:40278000C0510040044A137803F0EF03000100F0100018431070704730510040084A137843F0010313701032137843F00103137002F64D32137843F001031370704700BF66
:4027C000A3430040014B1880704700BF044F0040014B1880704700BF064F0040014B1870704700BF034F004008B5194A137843F0020313700232137803F08F0343F010030B
:402800001370144B1A7802F0CF021A701A7842F030021A701A7802F0F0021A701A7842F00F021A706420FFF7CDFF0020FFF7D0FF0020FFF7D3FF084A137843F0010313704E
:4028400002F65E32137843F00103137008BD00BF004F00400B4F0040A343004008B5054B1B7823B9FFF7C0FF0122024B1A70FFF795FF08BD7584FF1F054A137843F0010316
:4028800013701032137843F001031370704700BFA2430040024B1878C0F30010704700BF0151004018484FF47F0102680A43026016486FF07F4102680A40026070471448E9
:4028C0004FF080510160704772B611484FF000610160FFF71FFD0F48006800F0D5F858B10C4800684FF080730B4A0C490FB40FB46FF00600004700BF6FF0060062B600474A
:4029000062B600DF08B0704720ED00E01CED00E004ED00E09084FF1F4529000001290000EFF30880054908600548006880F3088870470248006880F308887047A882FF1F7D
:402940008C82FF1F411C8900154A11440968154A136899421AD0F0B444464D4656465F46F0B400B5104C9B002344EFF308851D60116089002144096881F3088802BC8E4676
:40298000F0BCA046A946B246BB46F0BC002806DB00B500F06DF802BC8E46FFF7D3BF7047983E00007084FF1F9082FF1FF0B444464D4656465F46F0B400B5EFF3038308B476
:4029C0008000174901440968164A0244EFF30883136088471448804704BC4FF08070024382F3038801BC8646F0BCA046A946B246BB46F0BC704780000A4901440A6882F330
:402A0000088804BC4FF08070024382F3038808BC9E46F0BCA046A946B246BB46F0BC7047703E0000A884FF1F512A0000000000000230800803D000BF01380046FCD170478B
:402A4000EFF3108072B6704780F31088704700BF08B572B6014B1868FFF7CDFF4482FF1F08B5024B1868FFF7A1FF08BD4482FF1F08B562B6FFF7F4FF72B600F041F8014B09
:402A8000186808BD9084FF1F00280BDA20F000400130054B53F82000044B1B68181A18BF0120704701207047983E00007084FF1F054B53F82020054B53F820309A4201D16F
:402AC0000120704700207047B081FF1F2C3E000008B5FFF75DFC084B53F8203043B10022054B43F8202040F00040044B186008BD024B186008BD00BF2884FF1F9084FF1F52
:402B000038B5364B1C680022354B1A60354A52F82430013342F82430334B53F824502046FFF7C6FF012801D0A54204D103222F4B43F8242003E002222C4B43F824202C4B02
:402B400053F824102B4A136823EA010313602A4B53F82440214B1C60B5F1FF3F0FD0234B53F82530032B07D10222204B43F825200022224B43F825202846FFF76FFCFFF79C
:402B80004BFCB0F1FF3F0BD1B4F1FF3F03D00022164B43F8242044F00044194B1C6038BD184B53F82020134B1B689A4208D800220E4B43F8242044F00044114B1C6038BD44
:402BC00000210A4A42F82010094A52F820201343084A1360FFF77CFF38BD00BF4482FF1F8084FF1FB081FF1F7481FF1F5C82FF1F403E00006C84FF1F4882FF1F5084FF1F0F
:402C00009084FF1F5C3E0000014B1868704700BF0C83FF1F0E4B70B51E460E4C0025E41AA410A54204D056F8253098470135F8E701F08CF9084B094C1E46E41AA41000251B
:402C4000A54204D056F8253098470135F8E770BD583F0000583F0000583F0000603F000010B5431E0A44914204D011F8014B03F8014FF8E710BD03460244934202D003F8D9
:402C8000011BFAE7704700000EB400B54FF402719CB0ADF814106FF00041049107914FF6FF711DAB02900690084853F8042BADF81610006802A9019300F064F8029B002265
:402CC0001A701CB05DF804EB03B070470C83FF1F2DE9F0478E6882469E420C46914698463ED88A8912F4906F3AD02568096902236F1A656905EB450595FBF3F57B1C4344AE
:402D00009D4238BF1D4653050FD5294600F040FB064698B13A462169FFF7A2FFA38923F4906343F08003A38113E02A4600F08EFB064670B92169504600F0DEFA0C23CAF814
:402D40000030A3894FF0FF3043F04003A381BDE8F08726613E44266046466561ED1BA560464528BF464649463246206800F0A8FAA36800209B1BA36023681E442660BDE8CA
:402D8000F08700002DE9F04F9DB003938B8980461C060D4616460DD50B695BB9402100F0F7FA2860286118B90C23C8F80030CDE040236B610023099320238DF82930DFF879
:402DC0009CB130238DF82A3037463C4614F8013B1BB9B7EB060910D003E0252BF9D02746F3E74B46324629464046FFF771FF013000F0A780099B4B4409933B78002B00F01C
:402E0000A08000234FF0FF3204930793059206938DF853301A930126052221784E4800F041FA671C049B38B14B4A3C46801A06FA00F018430490EFE7D90644BF20228DF807
:402E400053201A0744BF2B228DF8532022782A2A03D0079A00210A200BE0039A111D12680391002A10DA524243F00200079204900BE027463B780134303B092B03D800FB46
:402E800002320121F5E701B107923B782E2B1ED17B782A2B0AD1039B02371A1D1B680392002BB8BF4FF0FF33059310E0002319460593781C0A2407463A780130303A092A0D
:402EC00003D804FB01210123F5E703B1059103223978224800F0E6F940B14023CBEB000003FA00F0049B013718430490397806221B487E1C8DF8281000F0D4F988B1194BD3
:402F000033B9039B073323F007030833039314E003AB00932A46144B04A94046AFF3008007E003AB00932A460F4B04A9404600F093F8B0F1FF3F824603D0099B5344099395
:402F400042E7AB895B0601D4099801E04FF0FF301DB0BDE8F08F00BF163F00001C3F0000203F000000000000D12C00002DE9F04791461F460A698B6806469342B8BF134632
:402F8000C9F8003091F843200C46DDF8208012B10133C9F800302368990642BFD9F800300233C9F80030256815F0060510D104F1190A07E00123524639463046C0470130CD
:402FC0001AD00135E368D9F800209B1A9D42F1DB94F843302268003318BF012392060FD5E118302081F843005A1C94F845102244023382F8431003E04FF0FF30BDE8F087B1
:4030000004F1430239463046C0470130F4D02268D9F80050E36802F00602042A08BF5D1B2269A3680CBF25EAE57500259342C4BF9B1AED184FF000091A344D4509D00123E2
:40304000224639463046C0470130D5D009F10109F3E70020BDE8F0872DE9F04317460A7E85B06E2A984606460C460C9B01F1430E00F0AE8011D8632A22D009D8002A00F01A
:40308000BB80582A40F0CA8081F84520834955E0642A1ED0692A1CD0C0E0732A00F0B08009D86F2A2ED0702A40F0B8800A6842F020020A603EE0752A24D0782A3AD0ADE00E
:4030C0001A6801F14205111D1960136884F84230A8E021681A6811F0800F02D0111D196008E011F0400F02F10401196002D0B2F9003000E01368002B3CDA2D225B4284F80F
:40310000432037E021681A6811F0800F02D0111D196007E011F0400F02F10401196001D0138800E01368227E5C496F2A14BF0A2208221BE078225A4984F845202268186868
:4031400012F0800F00F104051D6003D1550601D5038800E00368D00744BF42F0200222601BB9226822F0200222601022002084F8430001E049490A226568002DA56008DB16
:40318000206820F0040020602BB9002D7DD175460CE0002B79D07546B3FBF2F002FB1033CB5C05F8013D03460028F5D1082A0BD12368DA0708D5236962689A42DEBF3023DC
:4031C00005F8013C05F1FF35C5EB0E0323612EE008681A6810F0800F496903D0101D1860136808E010F0400F02F104001860136801D0198000E0196000232361754616E0B6
:403200001A68111D1960156800216268284600F049F808B1401B6060636804E004F1420584F8422001232361002384F84330CDF800803B4603AA21463046FFF797FE0130FB
:4032400002D14FF0FF3026E023692A4639463046C0470130F5D023689B0710D5002504F1190907E001234A4639463046C0470130E7D00135E368039A9B1A9D42F2DBE06885
:40328000039B9842B8BF184605E00B7804F1420584F842308AE705B0BDE8F083273F0000383F000010B5C9B202449042034605D01C7801308C42F8D1184610BD002010BD2A
:4032C000884210B501EB020301D8421E0BE09842FBD28118D21AD34204D013F8014D01F8014DF8E710BD994204D011F8014B02F8014FF8E710BD000038B50546002944D05A
:4033000051F8043C0C1F002BB8BFE41800F0D4F81E4A1368114613B96360146030E0A3420DD92268A018834201BF18685B681218226063600C6023E0A24203D813465A68A5
:40334000002AF9D118681918A1420BD12168014458188242196013D110685268014419605A600DE002D90C232B6009E021686018824201BF106852680918216062605C609E
:403380002846BDE8384000F098B838BD7C84FF1F70B5CD1C25F0030508350C2D38BF0C25002D064601DBA94202D90C23336046E000F082F8234B1C681A462146A1B10B687B
:4033C0005B1B0ED40B2B03D90B60CC18CD501EE08C420BBF63684B681360636018BF0C4615E00C464968E9E7174C23681BB9304600F052F820602946304600F04DF8431C51
:4034000018D0C41C24F00304A0420DD12560304600F053F804F10B00231D20F00700C31A0ED05A42E25070BD211A304600F034F80130EBD10C233360304600F03EF800206E
:4034400070BD00BF7C84FF1F7884FF1FF8B5074615460E4621B91146BDE8F840FFF798BF1AB9FFF749FF2846F8BD00F027F885420ED929463846FFF78BFF044650B1314604
:403480002A46FFF7EDFB31463846FFF735FF01E03046F8BD2046F8BD38B5064C0023054608462360FEF7A8FA431C02D1236803B12B6038BDD0A6FF1F7047704751F8040C17
:4034C0000028BEBF091851F8043CC01804387047000000002020204541412041737369676E6D656E74203220200A0A00202020456C656374726F6E696320436C6F636B2018
:4035000020200000F50200000100000001000000510200003200000041030000FA000000020000000300000031060000000000000400000031060000000000000500000013
:40354000310600000000000003000000D83500000100000004000000B435000003000000050000009C3500000200000000000000310600000000000000000000443600008A
:403580000200000001000000143600000400000002000000E4350000040000000204000000000000A50800000405000000000000A50800000204000000000000A50800007F
:4035C0000305000000000000000000000103000000000000FD0400000104000000000000890500000100000000000000590C000002020000000000004D0C00000302000063
:4036000000000000DD0B00000402000000000000D10B00000102000000000000510B00000201000000000000450B00000301000000000000D50A0000040100000000000026
:40364000C90A00000101000000000000590A00000500000000000000610700000FB103053C3CB203053C3CB306053C3C053C3CB40103C003280804C101C0C2020D00C302B9
:403680008D2AC4028DEEC5011A3601C0E0100422070A2E30252A28262E3A00010313E10F16060D2D26232727252D3B000104133A0105290000000000003E5B4F5B3E3E6B85
:4036C0004F6B3E1C3E7C3E1C183C7E3C181C577D571C1C5E7F5E1C00183C1800FFE7C3E7FF0018241800FFE7DBE7FF30483A060E2629792926407F050507407F05253F5A81
:403700003CE73C5A7F3E1C1C08081C1C3E7F14227F22145F5F005F5F06097F017F006689956A606060606094A2FFA29408047E040810207E201008082A1C08081C2A0808F8
:403740001E101010100C1E0C1E0C30383E3830060E3E0E06000000000000005F00000007000700147F147F14242A7F2A12231308646236495620500008070300001C22418D
:40378000000041221C002A1C7F1C2A08083E080800807030000808080808000060600020100804023E5149453E00427F400072494949462141494D331814127F1027454543
:4037C00045393C4A49493141211109073649494936464949291E0000140000004034000000081422411414141414004122140802015909063E415D594E7C1211127C7F494C
:403800004949363E414141227F4141413E7F494949417F090909013E414151737F0808087F00417F41002040413F017F081422417F404040407F021C027F7F0408107F3E78
:403840004141413E7F090909063E4151215E7F09192946264949493203017F01033F4040403F1F2040201F3F4038403F631408146303047804036159494D43007F4141410B
:403880000204081020004141417F04020102044040404040000307080020545478407F284444383844444428384444287F385454541800087E090218A4A49C787F080404CF
:4038C0007800447D40002040403D007F1028440000417F40007C047804787C080404783844444438FC1824241818242418FC7C08040408485454542404043F44243C404074
:40390000207C1C2040201C3C4030403C44281028444C9090907C4464544C4400083641000000770000004136080002010204023C2623263C1EA1A161123A4040207A385405
:4039400054555921555579412254547842215554784020545579400C1E5272123955555559395454545939555454580000457C410002457D420001457C407D1211127DF062
:40398000282528F07C545545002054547C547C0A097F4932494949323A4444443A324A4848303A4141217A3A42402078009DA0A07D3D4242423D3D4040403D3C24FF242468
:4039C000487E4943662B2FFC2F2BFF0929F620C0887E090320545479410000447D413048484A32384040227A007A0A0A727D0D19317D2629292F28262929292630484D4046
:403A000020380808080808080808382F10C8ACBA2F102834FA00007B000008142A142222142A14085500550055AA55AA55AAFF55FF55FF000000FF00101010FF0014141489
:403A4000FF001010FF00FF1010F010F0141414FC001414F700FF0000FF00FF1414F404FC141417101F10101F101F1414141F00101010F0000000001F101010101F101010A4
:403A800010F010000000FF101010101010101010FF10000000FF140000FF00FF00001F10170000FC04F414141710171414F404F40000FF00F714141414141414F700F7140F
:403AC0001414171410101F101F141414F4141010F010F000001F101F0000001F14000000FC140000F010F01010FF10FF141414FF141010101F00000000F010FFFFFFFFFF69
:403B0000F0F0F0F0F0FFFFFF0000000000FFFF0F0F0F0F0F3844443844FC4A4A4A347E02020606027E027E0263554941633844443C04407E201E2006027E020299A5E7A5A0
:403B4000991C2A492A1C4C7201724C304A4D4D303048784830BC625A463D3E494949007E0101017E2A2A2A2A2A44445F444440514A444040444A51400000FF0103E080FF3A
:403B8000000008086B6B083612362436060F090F06000018180000001010003040FF0101001F01011E00191D1712003C3C3C3C000000000054465400427566666572206FE6
:403BC000766572666C6F77000A00000055415254207374617274656400000000203A20002564256425632564256400000000000071150000000000000000000000000000B7
:403C0000000000000000000000000000000000000000000000000000000000000000000000000000000000000000000000000000000000000000000000000000211600004D
:403C400000000000010000000000000001000000643C00000000000000000000000000000000000003000000004F00400C00205100401000405100403000F05100401000B1
:403C8000000001400008800801408007001401408004001901400001801A0140800100400140000A004C0140000200500140200060520040A0030048060000080140A80339
:403CC0000048800080180140280400488000001A0140A80400488000FF000101020202020303030303030303040404040404040404040404040404040505050505050505D7
:403D0000050505050505050505050505050505050505050505050505060606060606060606060606060606060606060606060606060606060606060606060606060606061B
:403D4000060606060606060606060606060606060606060606060606070707070707070707070707070707070707070707070707070707070707070707070707070707079B
:403D80000707070707070707070707070707070707070707070707070707070707070707070707070707070707070707070707070707070707070707070707070707070743
:403DC00007070707070707070707070707070707070707070707070701000000E03D00000000000003000000000000000000000029010000FFFFFFFF0000000000000000D4
:403E000000000000000000000000000070110100010000000100000000000000000000000000000001000000000000000100000001000000010000000100000001000000F8
:403E400080000000020000002000000010000000080000000100000002000000010000000200000020000000100000000800000061010000E501000015020000E901000001
:403E800041020000612A0000612A0000612A0000612A0000612A0000000000000000000000000000000000000100000000000000616C726D5F316D730000000065765F654C
:403EC00076656E745F6F6E446174610065765F316D696E0074736B5F696E69740000000074736B5F6261636B67726F756E64000074736B5F696E70757400000074736B5FD8
:403F0000636F6E74726F6C0074736B5F73797374656D00004300232D302B2000686C4C006566674546470030313233343536373839414243444546003031323334353637BA
:403F4000383961626364656600000000F8B500BFF8BC08BC9E4670474D000000751A0000F8B500BFF8BC08BC9E46704729000000803F0000C880FF1F48020000C82300001E
:403F80000000000000000000000000000000000000000000000000000000000000000000000000000000000000000000000000000000000000000000000000000000000001
:403FC000000000000000000000000000000000003C3C00000000000000000000000000000000000000000000000000000000000000000000143C00000000000000000000F9
:40400000000000000000000000000000000000000000000000000000EC3B0000D8A6FF1FB03E000000000000FFFFFFFFFFFFFFFFFFFFFFFFFFFFFFFFFFFFFFFFFFFFFFFFE7
:4040400001000000020000000300000004000000FFFFFFFF00000000010000000500000004000000030000000100000001000000010000000100000001000000FFFFFFFF2C
:40408000FFFFFFFFFFFFFFFFFFFFFFFFFFFFFFFFFFFFFFFFFFFFFFFFFFFFFFFFFFFFFFFFFFFFFFFFFFFFFFFFFFFFFFFFFFFFFFFFFFFFFFFFFFFFFFFFFFFFFFFFFFFFFFFF40
:4040C000FFFFFFFFFFFFFFFFFFFFFFFFFFFFFFFFFFFFFFFFFFFFFFFFFFFFFFFFFFFFFFFFFFFFFFFFFFFFFFFFFFFFFFFFFFFFFFFFFFFFFFFFFFFFFFFFFFFFFFFFFFFFFFFF00
:40410000FFFFFFFFFFFFFFFFFFFFFFFFFFFFFFFFFFFFFFFF0300000003000000030000000300000003000000BC3E0000CC3E0000D43E0000E03E0000F03E0000FC3E0000E8
:40414000083F0000D0A6FF1F00000000A8A4FF1F0000E02EC05D00001800000000366E01000000000000000000000000000000000000000000000000000000000000000012
:4041800000000000143F00000000000000000000000000000000000000000000000000000000000000000000000000000000000000000000000000000000000000000000AC
:4041C00000000000AC82FF1F000000000000000000000000000000000000000000000000000000000000000000000000000000000000000000000000000000000000000073
:40420000000000000000000000000000000000000000000000000000000000000000000000000000000000000000000000000000000000000000000000000000000000007E
:40424000000000000000000000000000000000000000000000000000000000000000000000000000000000000000000000000000000000000000000000000000000000003E
:4042800000000000000000000000000000000000000000000000000000000000000000000000000000000000000000000000000000000000000000000000000000000000FE
:4042C00000000000000000000000000000000000000000000000000000000000000000000000000000000000000000000000000000000000000000000000000000000000BE
:020000040003F7
:0200000480007A
:40000000024F00400164004003650040010701400D080140410901405E0A0140340B01400F180140421901400B1A0140431B01400242014007430140024401400145014068
:400040000146014002470140034C01400A4D01400450014001200A27880F8838890F8A72E2019C04A802AE01B004B202B401B908BE05BF04D804D904DC01DF0104040510A1
:40008000060207400A020D020E29100212041715188019081B201C241E821F80210824082514261427602BC02E2137653DA03E0645C44C044F84550256A0571466106C10BC
:4000C0006E056F1576028004810891209202931094289601970499119A109D809E829F25A080A180A510A6CDA714C0F0C2F1C473CAA0CCF0CEF0D050D230D820E0040014A5
:40010000040906D007080810092C0A400B430C0C0D800E710F1314DC1571162217061B0C1E0321712220230E28102AAC30E03130330F35C0361F39223A023B083F01400421
:40014000450449FF4A074BFF4C404D204EF04F0550085440580459045A045B045C115D015F01604061A862406320828084628520861487D0888D89558BAA8D0E9002920DFB
:400180009440953397C4984299949A089B699C8DA00DA280A48DA811AA22AC8DB00FB280B470B5F0B670B70FB980BAA2BB20BE04D409D804D904DB04DF0100680280042871
:4001C00006C00A020B100E550F2010801218130816021725184019011A021D941E442008211122102310240425402708290132183510360438803B183C043DA04101481086
:400200004B0850C05E925F046104624063086580C07FC2F5C4FACA01CC66CE7ED001D6F0D81E05010B0312011B031E011F02300131033E015418580459045B045D105F01AD
:400240000044012009880A400B040D010E01100212201321180419021A091F012080210422492780289029A530A8320133403510378039283A403D284080434049044A0827
:4002800052845308581259085A805D02670A80408F809080912099199A409E04A080A114A320A402A688AC10AD80B240B310C007C29FC40FCA0FCC3FCE6ED009D204D68FA1
:4002C000D830E0018A0296029801A801AC01B001B202BE04D804DC01DF010004060408040A460B020C200E10102A13011550180119211A541C401F06200421402230232171
:4003000029212B2230063180321435013601382839803B02404542204A01510152045B206828695070147188730488028980920A944095029640970D9A209DA0A320A42A08
:40034000A588A620A802AB08B040B221B320C044C26FC4CFCA0FCC0FCE0FD00FD208D6045308D4201B086B808380A708C610DC20E2807220DC019E209E2082209E20820299
:400380008D02E408108071027E028880A102A202C408DC01DE04E60100030C0310031C038094000040000000049A000001980002562109D884FC0003609800020A02109824
:4003C00007133864843800C0049A800080000400840200000000000008E002137F0F8000200000220000450061035000000ECDBF3DFFFFFF2200F008040000000000022445
:4004000004040404000000010000C00040011011C00100114001400100000000000000000000000000000000000000001813270C02000008000A27143F2000C018E0000071
:4004400008E00000100000151C13230427031814038000200140002003E0000F38001C10000020080000004061040000000C0B0E15FFFFFF0000F0440C0000000100000024
:400480000404040411110001000000000000C00000004002000000000000000000000000000000000000000000C000001018000000080000003C00C21044000000FC1001B8
:4004C00002E709180010040000FF1000030000040380000001000AC30000102003D80C1F080002A00000400424050300010000CE30FFFFFF62A0F0410C00000000000211D9
:40050000040404041111000100000000000040020010301000101012000000000000000000000000000000001800000000000000800040BCBC00B40000000000000B0B00AA
:400540000000000000181800080000000000000000000000000000000000000000000000000000000000000000000000000000000000000000000000000000000000000043
:40058000000000000000000000000000000000000000000000000000000000000000000000000000000000000000000000000000000000000000000000000000000000003B
:4005C00000000000000000000000000000000000000000000000000000000000000000000000000000000000000000000000000000000000000000000000000000000000FB
:4006000000000000000000000000000000000000000000000000000000000000000000000000000000000000000000000000000000000000000000000000000000000000BA
:40064000000000000000000000000000000000000000000000000000000000000000000000000000000000000000000000000000000000000000000000000000000000007A
:0200000490006A
:0400000000004005B7
:0200000490105A
:04000000BC90ACAF55
:0200000490303A
:02000000CE1F11
:0200000490402A
:4000000000000000000000000000000000000000000000000000000000000000000000000000000000000000000000000000000000000000000000000000000000000000C0
:400040000000000000000000000000000000000000000000000000000000000000000000000000000000000000000000000000000000000000000000000000000000000080
:400080000000000000000000000000000000000000000000000000000000000000000000000000000000000000000000000000000000000000000000000000000000000040
:4000C0000000000000000000000000000000000000000000000000000000000000000000000000000000000000000000000000000000000000000000000000000000000000
:0200000490501A
:0C00000000012E16106900012E2EDE8873
:00000001FF